S00B00004150502E7372656338
S11300000C9431000C944E000C944E000C944E0051
S11300100C944E000C944E000C944E000C944E0024
S11300200C944E000C944E000C94E2000C94690164
S11300300C94BB010C9492010C944E000C944E0051
S11300400C944E000C944E000C944E000C944E00F4
S11300500C944E009A029C029E02A002A202A402E8
S1130060A60211241FBECFE5D4E0DEBFCDBF10E051
S1130070A0E6B0E0E8EEFAE002C005900D92A237E7
S1130080B107D9F720E0A2E7B0E001C01D92AC3778
S1130090B207E1F70E94C9000C9472050C940000A9
S11300A060E070E080E00E9417030895CF930E94FF
S11300B05000C0E009C00E94F9026C2F70E06C5E31
S11300C07F4F0E941703CF5FC430A8F381E0809371
S11300D07B0064E070E00E941703CF9108951F93A2
S11300E0CF93DF93C0E010E00CC00E94F902D82F38
S11300F08C2F90E044960E944803D81301C01F5FE0
S1130100CF5FC43090F381E0143009F080E0DF91D8
S1130110CF911F9108950F931F93CF93DF93C0E066
S113012000E010E010C00E94F902D82F8C2F90E05C
S113013044960E944803D81302C01F5F03C0DA32FA
S113014009F40F5FCF5FC43070F3143029F481E0F9
S113015090E00E94EB0218C0043091F482E090E039
S11301600E94EB020E946F00882331F090E00E940D
S1130170EB020E94560008C090E00E94EB0204C00B
S113018080E090E00E94EB02DF91CF911F910F91EC
S113019008950E94E4010E9414030E94500084E028
S11301A090E00E94480380937B0090E00E94EB0261
S11301B080917B00882319F00E948B00F9CF0E9464
S11301C05600F6CF1F920F920FB60F9211242F9361
S11301D03F934F935F936F937F938F939F93AF93CB
S11301E0BF93EF93FF93E0917900F0917A003097F9
S11301F009F00995FF91EF91BF91AF919F918F9174
S11302007F916F915F914F913F912F910F900FBE0E
S11302100F901F90189580917400813019F48DB15E
S113022080628DB980917500811103C08DB18068A1
S11302308DB980917700813019F48EB181608EB9C7
S113024080917300823041F0833051F0813059F451
S11302508DB181608DB907C08DB182608DB903C045
S11302608DB183608DB980917800811106C08DB104
S113027080618DB987B3806B87BB809172008130B8
S113028051F028F0823059F0833081F015C08DB1DF
S1130290837F8DB911C08DB184608DB90DC08DB1CE
S11302A088608DB988B3806888BB06C08DB18C60C6
S11302B08DB988B3806888BB80917600811103C0B2
S11302C08DB180648DB908958FB9779BFECF8FB1BE
S11302D008951F920F920FB60F9211242F933F93FC
S11302E04F935F936F937F938F939F93AF93BF933A
S11302F0EF93FF93E0916800F0916900309709F063
S11303000995FF91EF91BF91AF919F918F917F914B
S11303106F915F914F913F912F910F900FBE0F906E
S11303201F9018951F920F920FB60F9211242F93BE
S11303303F934F935F936F937F938F939F93AF9369
S1130340BF93EF93FF93E0916A00F0916B003097B5
S113035009F00995FF91EF91BF91AF919F918F9112
S11303607F916F915F914F913F912F910F900FBEAD
S11303700F901F9018951F920F920FB60F92112491
S11303802F933F934F935F936F937F938F939F9399
S1130390AF93BF93EF93FF93E0916C00F0916D00E6
S11303A0309709F00995FF91EF91BF91AF919F911B
S11303B08F917F916F915F914F913F912F910F900A
S11303C00FBE0F901F901895CF92DF92EF92FF927D
S11303D00F931F93CF93DF9380916000823051F08D
S11303E0833031F0813011F0D0E005C0D8E003C093
S11303F0D8E101C0D0E180916200813071F120F038
S1130400823009F453C07CC060916E0070916F001B
S113041080917000909171000E94710420E030E09E
S113042040E851E40E94FF049B01AC0160E074E2E7
S113043084E799E40E94D00320E030E040E85FE3E1
S11304400E94630320E030E040E05FE30E94640325
S11304506B017C01C0E010E05BC060916E007091A4
S11304606F0080917000909171000E94710420E0EF
S113047030E040E051E40E94FF049B01AC0160E0E5
S113048074E284E799E40E94D00320E030E040E87D
S11304905FE30E94630320E030E040E05FE30E94FA
S11304A064036B017C01C0E012E032C000E610E09E
S11304B0F80166857785808991890E9471049B0182
S11304C0AC010E9464039B01AC0160E074E284E728
S11304D099E40E94D00320E030E040E85FE30E940A
S11304E0630320E030E040E05FE30E9464036B01BB
S11304F07C01F8018681813049F0C0E410E008C035
S1130500C12CD12C7601C0E010E002C0C1E410E09F
S113051080916100813009F41160E09163008E2FB5
S113052090E0FC013197E730F10588F4E65DFF4F78
S11305300C946C05D0680BC0D06409C0D06207C0AD
S1130540D06C05C0D06A03C0D06601C0D06E809163
S11305506400823059F018F4813031F00DC08330DA
S113056039F0843039F008C0C26006C0C46004C0E9
S1130570C66002C0D460C66080916500833079F0A3
S113058028F4813041F0823041F00EC0843049F0CB
S1130590853049F009C0C86007C0C06205C0C862A0
S11305A003C0C06301C0C863C701B6010E9442040E
S11305B070BDC701B6010E94420469B91BB9C06885
S11305C0C0BDDAB9DF91CF911F910F91FF90EF90E9
S11305D0DF90CF9008955D9BFECF2091640024307E
S11305E031F42AB12E7F2AB92AB1922B9AB98CB947
S11305F008955F9BFECF8BB180916400843021F419
S11306008CB190E0916008958CB190E008958823B6
S113061019F0813029F0089588B38F7E88BB08953E
S113062088B3806188BB08950E940B0108951F93CD
S1130630CF93DF93C82FD62F172F80E00E94070394
S113064086E00E94640181E00E94070383EF91E049
S11306500197F1F700C0000080E00E94070382E0E8
S11306600E946401812F0E9464018D2F0E94640105
S11306708C2F0E94640181E00E94070383EF91E0C4
S11306800197F1F700C00000DF91CF911F91089509
S1130690CF93DF93C82FD92F80E00E94070383E014
S11306A00E9464018D2F0E9464018C2F0E946401BA
S11306B08FEF0E946401C82F81E00E9407038C2FF2
S11306C0DF91CF9108955058BB27AA270E947B033E
S11306D00C94C5040E94B70438F00E94BE0420F0B4
S11306E039F49F3F19F426F40C94B4040EF4E09505
S11306F0E7FB0C94AE04E92F0E94D60458F3BA1712
S1130700620773078407950720F079F4A6F50C9423
S1130710F8040EF4E0950B2EBA2FA02D0B01B901AD
S113072090010C01CA01A0011124FF27591B99F063
S1130730593F50F4503E68F11A16F040A22F232F6F
S1130740342F4427585FF3CF469537952795A795BF
S1130750F0405395C9F77EF41F16BA0B620B730B66
S1130760840BBAF09150A1F0FF0FBB1F661F771FD7
S1130770881FC2F70EC0BA0F621F731F841F48F48C
S1130780879577956795B795F7959E3F08F0B0CF15
S11307909395880F08F09927EE0F979587950895FC
S11307A00E94E4030C94C5040E94BE0458F00E9405
S11307B0B70440F029F45F3F29F00C94AE045111C2
S11307C00C94F9040C94B4040E94D60468F399239D
S11307D0B1F3552391F3951B550BBB27AA27621739
S11307E07307840738F09F5F5F4F220F331F441F46
S11307F0AA1FA9F335D00E2E3AF0E0E832D091507A
S11308005040E695001CCAF72BD0FE2F29D0660F66
S1130810771F881FBB1F261737074807AB07B0E8A9
S113082009F0BB0B802DBF01FF2793585F4F3AF0AF
S11308309E3F510578F00C94AE040C94F9045F3F8C
S1130840E4F3983ED4F3869577956795B795F79535
S11308509F5FC9F7880F911D9695879597F908951D
S1130860E1E0660F771F881FBB1F621773078407B9
S1130870BA0720F0621B730B840BBA0BEE1F88F7C8
S1130880E09508950E94DE0488F09F5798F0B92FF0
S11308909927B751B0F0E1F0660F771F881F991FB1
S11308A01AF0BA95C9F714C0B13091F00E94F80457
S11308B0B1E008950C94F804672F782F8827B85F67
S11308C039F0B93FCCF3869577956795B395D9F709
S11308D03EF490958095709561957F4F8F4F9F4F13
S11308E00895E89409C097FB3EF49095809570951F
S11308F061957F4F8F4F9F4F9923A9F0F92F96E968
S1130900BB279395F695879577956795B795F111DC
S1130910F8CFFAF4BB0F11F460FF1BC06F5F7F4F79
S11309208F4F9F4F16C0882311F096E911C077238B
S113093021F09EE8872F762F05C0662371F096E894
S1130940862F70E060E02AF09A95660F771F881F63
S1130950DAF7880F9695879597F9089597F99F6721
S113096080E870E060E008959FEF80EC0895002433
S11309700A941616170618060906089500240A9400
S113098012161306140605060895092E0394000C86
S113099011F4882352F0BB0F40F4BF2B11F460FF15
S11309A004C06F5F7F4F8F4F9F4F089557FD90583E
S11309B0440F551F59F05F3F71F04795880F97FB1F
S11309C0991F61F09F3F79F08795089512161306D9
S11309D01406551FF2CF4695F1DF08C01616170608
S11309E01806991FF1CF869571056105089408953D
S11309F0E894BB2766277727CB0197F908950E94CF
S1130A0012050C94C5040E94B70438F00E94BE0479
S1130A1020F0952311F00C94AE040C94B40411242A
S1130A200C94F9040E94D60470F3959FC1F3950FBA
S1130A3050E0551F629FF001729FBB27F00DB11D5E
S1130A40639FAA27F00DB11DAA1F649F6627B00DEE
S1130A50A11D661F829F2227B00DA11D621F739FD7
S1130A60B00DA11D621F839FA00D611D221F749FE5
S1130A703327A00D611D231F849F600D211D822F2C
S1130A80762F6A2F11249F5750409AF0F1F0882353
S1130A904AF0EE0FFF1FBB1F661F771F881F915080
S1130AA05040A9F79E3F510580F00C94AE040C947D
S1130AB0F9045F3FE4F3983ED4F386957795679500
S1130AC0B795F795E7959F5FC1F7FE2B880F911DAA
S1130AD09695879597F90895EE0FFF1F0590F49169
S10B0AE0E02D0994F894FFCF06
S1130AE8030001000300000000000000000080254E
S1050AF80000F8
S9030000FC
