:100000000C9431000C944E000C944E000C944E0055
:100010000C944E000C944E000C944E000C944E0028
:100020000C944E000C944E000C944E000C94500016
:100030000C94A2000C9479000C944E000C944E0089
:100040000C944E000C944E000C944E000C944E00F8
:100050000C944E00810183018501870189018B0188
:100060008D0111241FBECFE5D4E0DEBFCDBF10E06F
:10007000A0E6B0E0E2E0FBE002C005900D92A83EF1
:10008000B107D9F720E0A8EEB0E001C01D92A93E6B
:10009000B207E1F70E9446030C947F050C94000020
:1000A0001F920F920FB60F9211242F933F934F93ED
:1000B0005F936F937F938F939F93AF93BF93EF93D0
:1000C000FF93E0916800F0916900309709F009957D
:1000D000FF91EF91BF91AF919F918F917F916F9120
:1000E0005F914F913F912F910F900FBE0F901F90F6
:1000F00018951F920F920FB60F9211242F933F93D2
:100100004F935F936F937F938F939F93AF93BF931F
:10011000EF93FF93E0916A00F0916B00309709F044
:100120000995FF91EF91BF91AF919F918F917F9131
:100130006F915F914F913F912F910F900FBE0F9054
:100140001F9018951F920F920FB60F9211242F93A4
:100150003F934F935F936F937F938F939F93AF934F
:10016000BF93EF93FF93E0916C00F0916D00309797
:1001700009F00995FF91EF91BF91AF919F918F91F8
:100180007F916F915F914F913F912F910F900FBE93
:100190000F901F901895CF92DF92EF92FF920F93DE
:1001A0001F93CF93DF9380916000823051F08330B2
:1001B00031F0813011F0D0E005C0D8E003C0D8E1C3
:1001C00001C0D0E180916200813071F120F0823075
:1001D00009F453C07CC060916E0070916F008091F3
:1001E0007000909171000E947E0420E030E040E8B1
:1001F00051E40E940C059B01AC0160E074E284E7CD
:1002000099E40E94DD0320E030E040E85FE30E94D3
:10021000700320E030E040E05FE30E9471036B0177
:100220007C01C0E010E05BC060916E0070916F00D7
:1002300080917000909171000E947E0420E030E077
:1002400040E051E40E940C059B01AC0160E074E2C7
:1002500084E799E40E94DD0320E030E040E85FE3BA
:100260000E94700320E030E040E05FE30E947103F1
:100270006B017C01C0E012E032C000E610E0F80142
:1002800066857785808991890E947E049B01AC01F7
:100290000E9471039B01AC0160E074E284E799E481
:1002A0000E94DD0320E030E040E85FE30E9470033D
:1002B00020E030E040E05FE30E9471036B017C01CD
:1002C000F8018681813049F0C0E410E008C0C12CFB
:1002D000D12C7601C0E010E002C0C1E410E08091B2
:1002E0006100813009F41160E09163008E2F90E08D
:1002F000FC013197E730F10588F4E65DFF4F0C947F
:100300007905D0680BC0D06409C0D06207C0D06C3A
:1003100005C0D06A03C0D06601C0D06E8091640071
:10032000823059F018F4813031F00DC0833039F04B
:10033000843039F008C0C26006C0C46004C0C66022
:1003400002C0D460C66080916500833079F028F4E3
:10035000813041F0823041F00EC0843049F0853068
:1003600049F009C0C86007C0C06205C0C86203C0C8
:10037000C06301C0C863C701B6010E944F0470BDCD
:10038000C701B6010E944F0469B91BB9C068C0BD5E
:10039000DAB9DF91CF911F910F91FF90EF90DF902D
:1003A000CF9008955D9BFECF20916400243031F4FE
:1003B0002AB12E7F2AB92AB1922B9AB98CB9089505
:1003C0005F9BFECF8BB180916400843021F48CB1AF
:1003D00090E0916008958CB190E008958B3041F0E9
:1003E0008C3021F08A3029F48AE2089583E208955E
:1003F00080E0089580E023C020E130E0082E02C0B4
:10040000220F331F0A94E2F72ABB20952BBB90E002
:1004100013C029B330E0092E02C0359527950A9400
:10042000E2F720FD08C0292F220F920F890F8F5F5E
:100430000E94EE0108959F5F943058F38F5F8330E0
:10044000D8F2D8CF94B3976094BB95B3997F95BBFE
:1004500095B3916095BB95B39F70282F207F922B09
:1004600095BB95B39E7F95BBE9EFF0E03197F1F72F
:1004700000C0000095B3916095BB25B3F0E18F9F5C
:10048000C0011124922F9F70892B85BB85B38E7F6D
:1004900085BB089584B3806F84BB87E893E101979F
:1004A000F1F700C0000082E00E94220288E20E9470
:1004B00022028EE00E94220281E00E942202089520
:1004C0008A3008F4805D94B3976094BBE9EFF0E064
:1004D0003197F1F700C0000095B39D7F95BB95B3B0
:1004E000946095BB95B3916095BB95B39F70282F91
:1004F000207F922B95BB95B39E7F95BBE9EFF0E0F3
:100500003197F1F700C0000095B3916095BB25B31A
:10051000F0E18F9FC0011124922F9F70892B85BB22
:1005200085B38E7F85BB08950F931F93CF938C0166
:10053000C0E003C00E946002CF5FF801EC0FF11D24
:10054000C7FDFA9580818111F5CFCF911F910F9151
:100550000895CF93DF93C0E013C00E94FA01D82F13
:1005600090E00E94D2018D2F0E9460022FE788E365
:1005700091E0215080409040E1F700C00000CF5F43
:10058000C43058F3DF91CF91089582EB90E00E9440
:10059000940280EC0E9422020E94A90281E00E9443
:1005A00022020E94E00199278130910549F018F05C
:1005B000029759F0089582E790E00E94940208950E
:1005C00082E890E00E949402089581E990E00E9400
:1005D000940280EC0E94220281EA90E00E94940240
:1005E0000E94FA012FE738E391E02150304090401B
:1005F000E1F700C00000813039F50E9422028EEA46
:1006000090E00E94940280EC0E9422020E94A902C3
:100610000E94E001882369F081E00E9422028CEBB5
:1006200090E00E94940280EC0E9422020E94A902A3
:10063000089581E00E9422028AEC90E00E949402D8
:1006400081E00E942202089581E00E94220289ED49
:1006500090E00E9494022FE936E881E0215030407A
:100660008040E1F700C0000008958CED90E00E940A
:10067000940280EC0E94220282EB90E00E9494029D
:100680000E94A90281E08093E80008950E94CB00B7
:100690000E944A020E94E0018093E8008091E800F5
:1006A000882379F00E94C5022FEF80E792E0215065
:1006B00080409040E1F700C0000081E00E942202EB
:1006C000EDCF0E9435032FEF80E792E0215080406C
:1006D0009040E1F700C0000081E00E942202DECFDE
:1006E0005058BB27AA270E9488030C94D2040E946A
:1006F000C40438F00E94CB0420F039F49F3F19F471
:1007000026F40C94C1040EF4E095E7FB0C94BB04B2
:10071000E92F0E94E30458F3BA17620773078407AE
:10072000950720F079F4A6F50C9405050EF4E095F4
:100730000B2EBA2FA02D0B01B90190010C01CA019B
:10074000A0011124FF27591B99F0593F50F4503E46
:1007500068F11A16F040A22F232F342F4427585F38
:10076000F3CF469537952795A795F0405395C9F750
:100770007EF41F16BA0B620B730B840BBAF0915008
:10078000A1F0FF0FBB1F661F771F881FC2F70EC0A7
:10079000BA0F621F731F841F48F48795779567957A
:1007A000B795F7959E3F08F0B0CF9395880F08F066
:1007B0009927EE0F9795879508950E94F1030C9461
:1007C000D2040E94CB0458F00E94C40440F029F4E3
:1007D0005F3F29F00C94BB0451110C9406050C9456
:1007E000C1040E94E30468F39923B1F3552391F304
:1007F000951B550BBB27AA2762177307840738F090
:100800009F5F5F4F220F331F441FAA1FA9F335D0EC
:100810000E2E3AF0E0E832D091505040E695001CA0
:10082000CAF72BD0FE2F29D0660F771F881FBB1F5A
:10083000261737074807AB07B0E809F0BB0B802D38
:10084000BF01FF2793585F4F3AF09E3F510578F064
:100850000C94BB040C9406055F3FE4F3983ED4F37C
:10086000869577956795B795F7959F5FC9F7880F38
:10087000911D9695879597F90895E1E0660F771F8A
:10088000881FBB1F621773078407BA0720F0621B1B
:10089000730B840BBA0BEE1F88F7E09508950E9446
:1008A000EB0488F09F5798F0B92F9927B751B0F013
:1008B000E1F0660F771F881F991F1AF0BA95C9F7E4
:1008C00014C0B13091F00E940505B1E008950C9478
:1008D0000505672F782F8827B85F39F0B93FCCF32B
:1008E000869577956795B395D9F73EF49095809561
:1008F000709561957F4F8F4F9F4F0895E89409C081
:1009000097FB3EF490958095709561957F4F8F4F42
:100910009F4F9923A9F0F92F96E9BB279395F69558
:10092000879577956795B795F111F8CFFAF4BB0FD6
:1009300011F460FF1BC06F5F7F4F8F4F9F4F16C03A
:10094000882311F096E911C0772321F09EE8872FC4
:10095000762F05C0662371F096E8862F70E060E080
:100960002AF09A95660F771F881FDAF7880F9695F9
:10097000879597F9089597F99F6780E870E060E0A0
:1009800008959FEF80EC089500240A941616170628
:1009900018060906089500240A9412161306140670
:1009A00005060895092E0394000C11F4882352F0D3
:1009B000BB0F40F4BF2B11F460FF04C06F5F7F4F8B
:1009C0008F4F9F4F089557FD9058440F551F59F072
:1009D0005F3F71F04795880F97FB991F61F09F3F2C
:1009E00079F087950895121613061406551FF2CF55
:1009F0004695F1DF08C0161617061806991FF1CFA5
:100A000086957105610508940895E894BB276627CB
:100A10007727CB0197F908950E941F050C94D20403
:100A20000E94C40438F00E94CB0420F0952311F0FA
:100A30000C94BB040C94C10411240C9406050E9470
:100A4000E30470F3959FC1F3950F50E0551F629F2B
:100A5000F001729FBB27F00DB11D639FAA27F00D17
:100A6000B11DAA1F649F6627B00DA11D661F829F3E
:100A70002227B00DA11D621F739FB00DA11D621F23
:100A8000839FA00D611D221F749F3327A00D611D40
:100A9000231F849F600D211D822F762F6A2F112422
:100AA0009F5750409AF0F1F088234AF0EE0FFF1F55
:100AB000BB1F661F771F881F91505040A9F79E3FAC
:100AC000510580F00C94BB040C9406055F3FE4F3E1
:100AD000983ED4F3869577956795B795F795E79502
:100AE0009F5FC1F7FE2B880F911D9695879597F90B
:100AF0000895EE0FFF1F0590F491E02D0994F894EE
:020B0000FFCF25
:100B02000300010003000000000000000000802537
:100B120000004163636573732052656A656374659F
:100B22006400416363657373204772616E74656428
:100B32000052657365742050617373776F72643FFE
:100B420000313A596573202020323A4E6F004F6CC3
:100B5200642050617373776F72643A004E65772038
:100B620050617373776F72643A0057726F6E6720C9
:100B720050617373776F7264004F6B0041737369D6
:080B8200676E204E657700004C
:00000001FF
